{
  "contractName": "FeedbackContract",
  "abi": [
    {
      "inputs": [
        {
          "internalType": "bytes32",
          "name": "_hash",
          "type": "bytes32"
        }
      ],
      "name": "saveHash",
      "outputs": [],
      "stateMutability": "nonpayable",
      "type": "function"
    }
  ],
  "bytecode": "0x6080604052600060015534801561001557600080fd5b50610219806100256000396000f3fe608060405234801561001057600080fd5b506004361061002b5760003560e01c8063010f836e14610030575b600080fd5b61004a60048036038101906100459190610135565b61004c565b005b60405180604001604052803373ffffffffffffffffffffffffffffffffffffffff16815260200182815250600080600154815260200190815260200160002060008201518160000160006101000a81548173ffffffffffffffffffffffffffffffffffffffff021916908373ffffffffffffffffffffffffffffffffffffffff16021790555060208201518160010155905050600160008154809291906100f29061019b565b919050555050565b600080fd5b6000819050919050565b610112816100ff565b811461011d57600080fd5b50565b60008135905061012f81610109565b92915050565b60006020828403121561014b5761014a6100fa565b5b600061015984828501610120565b91505092915050565b7f4e487b7100000000000000000000000000000000000000000000000000000000600052601160045260246000fd5b6000819050919050565b60006101a682610191565b91507fffffffffffffffffffffffffffffffffffffffffffffffffffffffffffffffff82036101d8576101d7610162565b5b60018201905091905056fea2646970667358221220ece65bc9f43d58d9e0cb2ebf8525e94e7fa5deb1ddf38bfd2fc18c1e6b4fa25764736f6c634300080d0033",
  "immutableReferences": {},
  "source": "// SPDX-License-Identifier: MIT\npragma solidity ^0.8.7;\n\ncontract FeedbackContract {\n    struct Feedback {\n        address client;\n        bytes32 messageHash;\n    }\n    mapping(uint => Feedback) private feedbacks;\n    uint feedbackCount = 0;\n\n    function saveHash(bytes32 _hash) external {\n        feedbacks[feedbackCount] = Feedback({ client: msg.sender, messageHash: _hash });\n        feedbackCount++;\n    }\n}",
  "sourcePath": "/home/talis/Workspace/Disciplinas-UFSC/INE5458-Blockchain/MVP/Truffle-project/contracts/FeedbackContract.sol",
  "compiler": {
    "name": "solc",
    "version": "0.8.13+commit.abaa5c0e.Emscripten.clang"
  },
  "schemaVersion": "3.4.16",
  "updatedAt": "2023-12-06T20:05:51.482Z",
  "networkType": "ethereum",
  "devdoc": {
    "kind": "dev",
    "methods": {},
    "version": 1
  },
  "userdoc": {
    "kind": "user",
    "methods": {},
    "version": 1
  }
}